{
  "_format": "hh-sol-artifact-1",
  "contractName": "Raffle",
  "sourceName": "contracts/Raffle.sol",
  "abi": [
    {
      "inputs": [
        {
          "internalType": "address",
          "name": "vrfCoordinatorV2",
          "type": "address"
        },
        {
          "internalType": "uint256",
          "name": "entranceFee",
          "type": "uint256"
        },
        {
          "internalType": "bytes32",
          "name": "gasLane",
          "type": "bytes32"
        },
        {
          "internalType": "uint64",
          "name": "subscriptionId",
          "type": "uint64"
        },
        {
          "internalType": "uint32",
          "name": "callbackGasLimit",
          "type": "uint32"
        },
        {
          "internalType": "uint256",
          "name": "interval",
          "type": "uint256"
        }
      ],
      "stateMutability": "nonpayable",
      "type": "constructor"
    },
    {
      "inputs": [
        {
          "internalType": "address",
          "name": "have",
          "type": "address"
        },
        {
          "internalType": "address",
          "name": "want",
          "type": "address"
        }
      ],
      "name": "OnlyCoordinatorCanFulfill",
      "type": "error"
    },
    {
      "inputs": [],
      "name": "OnlySimulatedBackend",
      "type": "error"
    },
    {
      "inputs": [],
      "name": "Raffle_NotEnoughETHnetered",
      "type": "error"
    },
    {
      "inputs": [],
      "name": "Raffle_NotOpen",
      "type": "error"
    },
    {
      "inputs": [],
      "name": "Raffle_TransferFailed",
      "type": "error"
    },
    {
      "inputs": [
        {
          "internalType": "uint256",
          "name": "currentBalance",
          "type": "uint256"
        },
        {
          "internalType": "uint256",
          "name": "numPlayers",
          "type": "uint256"
        },
        {
          "internalType": "uint256",
          "name": "raffleState",
          "type": "uint256"
        }
      ],
      "name": "Raffle__UpkeepNotNeeded",
      "type": "error"
    },
    {
      "anonymous": false,
      "inputs": [
        {
          "indexed": true,
          "internalType": "address",
          "name": "player",
          "type": "address"
        }
      ],
      "name": "RaffleEnter",
      "type": "event"
    },
    {
      "anonymous": false,
      "inputs": [
        {
          "indexed": true,
          "internalType": "address",
          "name": "winner",
          "type": "address"
        }
      ],
      "name": "RandomWordsFulfill",
      "type": "event"
    },
    {
      "anonymous": false,
      "inputs": [
        {
          "indexed": true,
          "internalType": "uint256",
          "name": "requestId",
          "type": "uint256"
        }
      ],
      "name": "RandowWinnerPick",
      "type": "event"
    },
    {
      "inputs": [
        {
          "internalType": "bytes",
          "name": "",
          "type": "bytes"
        }
      ],
      "name": "checkUpkeep",
      "outputs": [
        {
          "internalType": "bool",
          "name": "upkeepNeeded",
          "type": "bool"
        },
        {
          "internalType": "bytes",
          "name": "",
          "type": "bytes"
        }
      ],
      "stateMutability": "view",
      "type": "function"
    },
    {
      "inputs": [],
      "name": "enterRaffle",
      "outputs": [],
      "stateMutability": "payable",
      "type": "function"
    },
    {
      "inputs": [],
      "name": "getEntranceFee",
      "outputs": [
        {
          "internalType": "uint256",
          "name": "",
          "type": "uint256"
        }
      ],
      "stateMutability": "view",
      "type": "function"
    },
    {
      "inputs": [],
      "name": "getInterval",
      "outputs": [
        {
          "internalType": "uint256",
          "name": "",
          "type": "uint256"
        }
      ],
      "stateMutability": "view",
      "type": "function"
    },
    {
      "inputs": [],
      "name": "getLastTimeStamp",
      "outputs": [
        {
          "internalType": "uint256",
          "name": "",
          "type": "uint256"
        }
      ],
      "stateMutability": "view",
      "type": "function"
    },
    {
      "inputs": [],
      "name": "getNumWords",
      "outputs": [
        {
          "internalType": "uint32",
          "name": "",
          "type": "uint32"
        }
      ],
      "stateMutability": "pure",
      "type": "function"
    },
    {
      "inputs": [],
      "name": "getNumberOfPlayers",
      "outputs": [
        {
          "internalType": "uint256",
          "name": "",
          "type": "uint256"
        }
      ],
      "stateMutability": "view",
      "type": "function"
    },
    {
      "inputs": [
        {
          "internalType": "uint256",
          "name": "index",
          "type": "uint256"
        }
      ],
      "name": "getPlayer",
      "outputs": [
        {
          "internalType": "address",
          "name": "",
          "type": "address"
        }
      ],
      "stateMutability": "view",
      "type": "function"
    },
    {
      "inputs": [],
      "name": "getRaffleState",
      "outputs": [
        {
          "internalType": "enum Raffle.RaffleState",
          "name": "",
          "type": "uint8"
        }
      ],
      "stateMutability": "view",
      "type": "function"
    },
    {
      "inputs": [],
      "name": "getRecentWinter",
      "outputs": [
        {
          "internalType": "address",
          "name": "",
          "type": "address"
        }
      ],
      "stateMutability": "view",
      "type": "function"
    },
    {
      "inputs": [],
      "name": "getRequestConfirmatison",
      "outputs": [
        {
          "internalType": "uint256",
          "name": "",
          "type": "uint256"
        }
      ],
      "stateMutability": "pure",
      "type": "function"
    },
    {
      "inputs": [
        {
          "internalType": "bytes",
          "name": "",
          "type": "bytes"
        }
      ],
      "name": "performUpkeep",
      "outputs": [],
      "stateMutability": "nonpayable",
      "type": "function"
    },
    {
      "inputs": [
        {
          "internalType": "uint256",
          "name": "requestId",
          "type": "uint256"
        },
        {
          "internalType": "uint256[]",
          "name": "randomWords",
          "type": "uint256[]"
        }
      ],
      "name": "rawFulfillRandomWords",
      "outputs": [],
      "stateMutability": "nonpayable",
      "type": "function"
    }
  ],
  "bytecode": "0x6101406040523480156200001257600080fd5b5060405162001867380380620018678339818101604052810190620000389190620001b6565b858073ffffffffffffffffffffffffffffffffffffffff1660808173ffffffffffffffffffffffffffffffffffffffff1660601b81525050508460a0818152505085600260006101000a81548173ffffffffffffffffffffffffffffffffffffffff021916908373ffffffffffffffffffffffffffffffffffffffff1602179055508360c081815250508267ffffffffffffffff1660e08167ffffffffffffffff1660c01b815250508163ffffffff166101008163ffffffff1660e01b815250506000600460006101000a81548160ff02191690836002811115620001225762000121620002be565b5b02179055504260058190555080610120818152505050505050505062000374565b6000815190506200015481620002f2565b92915050565b6000815190506200016b816200030c565b92915050565b600081519050620001828162000326565b92915050565b600081519050620001998162000340565b92915050565b600081519050620001b0816200035a565b92915050565b60008060008060008060c08789031215620001d657620001d5620002ed565b5b6000620001e689828a0162000143565b9650506020620001f989828a0162000171565b95505060406200020c89828a016200015a565b94505060606200021f89828a016200019f565b93505060806200023289828a0162000188565b92505060a06200024589828a0162000171565b9150509295509295509295565b60006200025f8262000270565b9050919050565b6000819050919050565b600073ffffffffffffffffffffffffffffffffffffffff82169050919050565b6000819050919050565b600063ffffffff82169050919050565b600067ffffffffffffffff82169050919050565b7f4e487b7100000000000000000000000000000000000000000000000000000000600052602160045260246000fd5b600080fd5b620002fd8162000252565b81146200030957600080fd5b50565b620003178162000266565b81146200032357600080fd5b50565b620003318162000290565b81146200033d57600080fd5b50565b6200034b816200029a565b81146200035757600080fd5b50565b6200036581620002aa565b81146200037157600080fd5b50565b60805160601c60a05160c05160e05160c01c6101005160e01c61012051611485620003e2600039600081816107e90152610857015260006106d5015260006106b2015260006106910152600081816102fa015261042e015260008181610344015261039801526114856000f3fe6080604052600436106100c25760003560e01c80634585e33b1161007f57806391ad27b41161005957806391ad27b414610238578063c1c244e814610263578063e55ae4e81461028e578063fd6673f5146102cb576100c2565b80634585e33b146101a657806353a2c19a146101cf5780636e04ff0d146101fa576100c2565b806309bc33a7146100c7578063115cbaf5146100f257806312b536731461011d5780631fe543e3146101485780632a48a144146101715780632cfcc5391461019c575b600080fd5b3480156100d357600080fd5b506100dc6102f6565b6040516100e99190611070565b60405180910390f35b3480156100fe57600080fd5b5061010761031e565b6040516101149190611055565b60405180910390f35b34801561012957600080fd5b50610132610335565b60405161013f9190611070565b60405180910390f35b34801561015457600080fd5b5061016f600480360381019061016a9190610e49565b610342565b005b34801561017d57600080fd5b50610186610402565b6040516101939190610f8e565b60405180910390f35b6101a461042c565b005b3480156101b257600080fd5b506101cd60048036038101906101c89190610d59565b61059b565b005b3480156101db57600080fd5b506101e461079d565b6040516101f191906110c2565b60405180910390f35b34801561020657600080fd5b50610221600480360381019061021c9190610da6565b6107a6565b60405161022f929190610fd2565b60405180910390f35b34801561024457600080fd5b5061024d610853565b60405161025a9190611070565b60405180910390f35b34801561026f57600080fd5b5061027861087b565b6040516102859190611070565b60405180910390f35b34801561029a57600080fd5b506102b560048036038101906102b09190610def565b610885565b6040516102c29190610f8e565b60405180910390f35b3480156102d757600080fd5b506102e06108cc565b6040516102ed9190611070565b60405180910390f35b60007f0000000000000000000000000000000000000000000000000000000000000000905090565b6000600460009054906101000a900460ff16905090565b6000600361ffff16905090565b7f000000000000000000000000000000000000000000000000000000000000000073ffffffffffffffffffffffffffffffffffffffff163373ffffffffffffffffffffffffffffffffffffffff16146103f457337f00000000000000000000000000000000000000000000000000000000000000006040517f1cf993f40000000000000000000000000000000000000000000000000000000081526004016103eb929190610fa9565b60405180910390fd5b6103fe82826108d8565b5050565b6000600160009054906101000a900473ffffffffffffffffffffffffffffffffffffffff16905090565b7f0000000000000000000000000000000000000000000000000000000000000000341015610486576040517f02b4eca700000000000000000000000000000000000000000000000000000000815260040160405180910390fd5b6000600281111561049a57610499611365565b5b600460009054906101000a900460ff1660028111156104bc576104bb611365565b5b146104f3576040517fd6e19a8d00000000000000000000000000000000000000000000000000000000815260040160405180910390fd5b6000339080600181540180825580915050600190039060005260206000200160009091909190916101000a81548173ffffffffffffffffffffffffffffffffffffffff021916908373ffffffffffffffffffffffffffffffffffffffff1602179055503373ffffffffffffffffffffffffffffffffffffffff167f0805e1d667bddb8a95f0f09880cf94f403fb596ce79928d9f29b74203ba284d460405160405180910390a2565b60006105b5604051806020016040528060008152506107a6565b509050806106245747600080549050600460009054906101000a900460ff1660028111156105e6576105e5611365565b5b6040517f584327aa00000000000000000000000000000000000000000000000000000000815260040161061b9392919061108b565b60405180910390fd5b6001600460006101000a81548160ff0219169083600281111561064a57610649611365565b5b02179055506000600260009054906101000a900473ffffffffffffffffffffffffffffffffffffffff1673ffffffffffffffffffffffffffffffffffffffff16635d3b1d307f00000000000000000000000000000000000000000000000000000000000000007f000000000000000000000000000000000000000000000000000000000000000060037f000000000000000000000000000000000000000000000000000000000000000060016040518663ffffffff1660e01b8152600401610716959493929190611002565b602060405180830381600087803b15801561073057600080fd5b505af1158015610744573d6000803e3d6000fd5b505050506040513d601f19601f820116820180604052508101906107689190610e1c565b9050807fffa0c7626c3036061bbaafb595bc260929d35405feead367254dd7ca04ed75e960405160405180910390a250505050565b60006001905090565b600060606000600460009054906101000a900460ff1660028111156107ce576107cd611365565b5b600060028111156107e2576107e1611365565b5b14905060007f0000000000000000000000000000000000000000000000000000000000000000600554426108169190611186565b119050600080600080549050119050600080471190508380156108365750825b801561083f5750805b80156108485750815b955050505050915091565b60007f0000000000000000000000000000000000000000000000000000000000000000905090565b6000600554905090565b600080828154811061089a57610899611394565b5b9060005260206000200160009054906101000a900473ffffffffffffffffffffffffffffffffffffffff169050919050565b60008080549050905090565b60008080549050826000815181106108f3576108f2611394565b5b602002602001015161090591906112d6565b9050600080828154811061091c5761091b611394565b5b9060005260206000200160009054906101000a900473ffffffffffffffffffffffffffffffffffffffff16905080600160006101000a81548173ffffffffffffffffffffffffffffffffffffffff021916908373ffffffffffffffffffffffffffffffffffffffff1602179055506000600460006101000a81548160ff021916908360028111156109b0576109af611365565b5b0217905550600067ffffffffffffffff8111156109d0576109cf6113c3565b5b6040519080825280602002602001820160405280156109fe5781602001602082028036833780820191505090505b5060009080519060200190610a14929190610b24565b5060008173ffffffffffffffffffffffffffffffffffffffff1647604051610a3b90610f79565b60006040518083038185875af1925050503d8060008114610a78576040519150601f19603f3d011682016040523d82523d6000602084013e610a7d565b606091505b5050905080610ab8576040517fba31c4f300000000000000000000000000000000000000000000000000000000815260040160405180910390fd5b600160009054906101000a900473ffffffffffffffffffffffffffffffffffffffff1673ffffffffffffffffffffffffffffffffffffffff167f82335e265462fa57d652059024a95775025cab4c06b62b17f8c9dd289ce4b8fd60405160405180910390a25050505050565b828054828255906000526020600020908101928215610b9d579160200282015b82811115610b9c5782518260006101000a81548173ffffffffffffffffffffffffffffffffffffffff021916908373ffffffffffffffffffffffffffffffffffffffff16021790555091602001919060010190610b44565b5b509050610baa9190610bae565b5090565b5b80821115610bc7576000816000905550600101610baf565b5090565b6000610bde610bd984611102565b6110dd565b90508083825260208201905082856020860282011115610c0157610c006113fc565b5b60005b85811015610c315781610c178882610d2f565b845260208401935060208301925050600181019050610c04565b5050509392505050565b6000610c4e610c498461112e565b6110dd565b905082815260208101848484011115610c6a57610c69611401565b5b610c75848285611263565b509392505050565b600082601f830112610c9257610c916113f7565b5b8135610ca2848260208601610bcb565b91505092915050565b60008083601f840112610cc157610cc06113f7565b5b8235905067ffffffffffffffff811115610cde57610cdd6113f2565b5b602083019150836001820283011115610cfa57610cf96113fc565b5b9250929050565b600082601f830112610d1657610d156113f7565b5b8135610d26848260208601610c3b565b91505092915050565b600081359050610d3e81611438565b92915050565b600081519050610d5381611438565b92915050565b60008060208385031215610d7057610d6f61140b565b5b600083013567ffffffffffffffff811115610d8e57610d8d611406565b5b610d9a85828601610cab565b92509250509250929050565b600060208284031215610dbc57610dbb61140b565b5b600082013567ffffffffffffffff811115610dda57610dd9611406565b5b610de684828501610d01565b91505092915050565b600060208284031215610e0557610e0461140b565b5b6000610e1384828501610d2f565b91505092915050565b600060208284031215610e3257610e3161140b565b5b6000610e4084828501610d44565b91505092915050565b60008060408385031215610e6057610e5f61140b565b5b6000610e6e85828601610d2f565b925050602083013567ffffffffffffffff811115610e8f57610e8e611406565b5b610e9b85828601610c7d565b9150509250929050565b610eae816111ba565b82525050565b610ebd816111cc565b82525050565b610ecc816111d8565b82525050565b6000610edd8261115f565b610ee7818561116a565b9350610ef7818560208601611272565b610f0081611410565b840191505092915050565b610f1481611251565b82525050565b6000610f2760008361117b565b9150610f3282611421565b600082019050919050565b610f46816111f5565b82525050565b610f5581611223565b82525050565b610f648161122d565b82525050565b610f738161123d565b82525050565b6000610f8482610f1a565b9150819050919050565b6000602082019050610fa36000830184610ea5565b92915050565b6000604082019050610fbe6000830185610ea5565b610fcb6020830184610ea5565b9392505050565b6000604082019050610fe76000830185610eb4565b8181036020830152610ff98184610ed2565b90509392505050565b600060a0820190506110176000830188610ec3565b6110246020830187610f6a565b6110316040830186610f3d565b61103e6060830185610f5b565b61104b6080830184610f5b565b9695505050505050565b600060208201905061106a6000830184610f0b565b92915050565b60006020820190506110856000830184610f4c565b92915050565b60006060820190506110a06000830186610f4c565b6110ad6020830185610f4c565b6110ba6040830184610f4c565b949350505050565b60006020820190506110d76000830184610f5b565b92915050565b60006110e76110f8565b90506110f382826112a5565b919050565b6000604051905090565b600067ffffffffffffffff82111561111d5761111c6113c3565b5b602082029050602081019050919050565b600067ffffffffffffffff821115611149576111486113c3565b5b61115282611410565b9050602081019050919050565b600081519050919050565b600082825260208201905092915050565b600081905092915050565b600061119182611223565b915061119c83611223565b9250828210156111af576111ae611307565b5b828203905092915050565b60006111c582611203565b9050919050565b60008115159050919050565b6000819050919050565b60008190506111f082611424565b919050565b600061ffff82169050919050565b600073ffffffffffffffffffffffffffffffffffffffff82169050919050565b6000819050919050565b600063ffffffff82169050919050565b600067ffffffffffffffff82169050919050565b600061125c826111e2565b9050919050565b82818337600083830152505050565b60005b83811015611290578082015181840152602081019050611275565b8381111561129f576000848401525b50505050565b6112ae82611410565b810181811067ffffffffffffffff821117156112cd576112cc6113c3565b5b80604052505050565b60006112e182611223565b91506112ec83611223565b9250826112fc576112fb611336565b5b828206905092915050565b7f4e487b7100000000000000000000000000000000000000000000000000000000600052601160045260246000fd5b7f4e487b7100000000000000000000000000000000000000000000000000000000600052601260045260246000fd5b7f4e487b7100000000000000000000000000000000000000000000000000000000600052602160045260246000fd5b7f4e487b7100000000000000000000000000000000000000000000000000000000600052603260045260246000fd5b7f4e487b7100000000000000000000000000000000000000000000000000000000600052604160045260246000fd5b600080fd5b600080fd5b600080fd5b600080fd5b600080fd5b600080fd5b6000601f19601f8301169050919050565b50565b6003811061143557611434611365565b5b50565b61144181611223565b811461144c57600080fd5b5056fea2646970667358221220189071c74fe8f36f2d30073566f75e7fc8fde0e65f60af314286922c6fdd8c2864736f6c63430008070033",
  "linkReferences": {},
  "deployedLinkReferences": {}
}