{
  "_format": "hh-sol-artifact-1",
  "contractName": "Raffle",
  "sourceName": "contracts/Raffle.sol",
  "abi": [
    {
      "inputs": [
        {
          "internalType": "address",
          "name": "vrfCoordinatorV2",
          "type": "address"
        },
        {
          "internalType": "uint256",
          "name": "entranceFee",
          "type": "uint256"
        },
        {
          "internalType": "bytes32",
          "name": "gasLane",
          "type": "bytes32"
        },
        {
          "internalType": "uint64",
          "name": "subscriptionId",
          "type": "uint64"
        },
        {
          "internalType": "uint32",
          "name": "callbackGasLimit",
          "type": "uint32"
        },
        {
          "internalType": "uint256",
          "name": "interval",
          "type": "uint256"
        }
      ],
      "stateMutability": "nonpayable",
      "type": "constructor"
    },
    {
      "inputs": [
        {
          "internalType": "address",
          "name": "have",
          "type": "address"
        },
        {
          "internalType": "address",
          "name": "want",
          "type": "address"
        }
      ],
      "name": "OnlyCoordinatorCanFulfill",
      "type": "error"
    },
    {
      "inputs": [],
      "name": "OnlySimulatedBackend",
      "type": "error"
    },
    {
      "inputs": [],
      "name": "Raffle_NotEnoughETHnetered",
      "type": "error"
    },
    {
      "inputs": [],
      "name": "Raffle_NotOpen",
      "type": "error"
    },
    {
      "inputs": [],
      "name": "Raffle_TransferFailed",
      "type": "error"
    },
    {
      "inputs": [
        {
          "internalType": "uint256",
          "name": "currentBalance",
          "type": "uint256"
        },
        {
          "internalType": "uint256",
          "name": "numPlayers",
          "type": "uint256"
        },
        {
          "internalType": "uint256",
          "name": "raffleState",
          "type": "uint256"
        }
      ],
      "name": "Raffle__UpkeepNotNeeded",
      "type": "error"
    },
    {
      "anonymous": false,
      "inputs": [
        {
          "indexed": true,
          "internalType": "address",
          "name": "player",
          "type": "address"
        }
      ],
      "name": "RaffleEnter",
      "type": "event"
    },
    {
      "anonymous": false,
      "inputs": [
        {
          "indexed": true,
          "internalType": "address",
          "name": "winner",
          "type": "address"
        }
      ],
      "name": "RandomWordsFulfill",
      "type": "event"
    },
    {
      "anonymous": false,
      "inputs": [
        {
          "indexed": true,
          "internalType": "uint256",
          "name": "requestId",
          "type": "uint256"
        }
      ],
      "name": "RandowWinnerPick",
      "type": "event"
    },
    {
      "inputs": [
        {
          "internalType": "bytes",
          "name": "",
          "type": "bytes"
        }
      ],
      "name": "checkUpkeep",
      "outputs": [
        {
          "internalType": "bool",
          "name": "upkeepNeeded",
          "type": "bool"
        },
        {
          "internalType": "bytes",
          "name": "",
          "type": "bytes"
        }
      ],
      "stateMutability": "view",
      "type": "function"
    },
    {
      "inputs": [],
      "name": "enterRaffle",
      "outputs": [],
      "stateMutability": "payable",
      "type": "function"
    },
    {
      "inputs": [],
      "name": "getEntranceFee",
      "outputs": [
        {
          "internalType": "uint256",
          "name": "",
          "type": "uint256"
        }
      ],
      "stateMutability": "view",
      "type": "function"
    },
    {
      "inputs": [],
      "name": "getInterval",
      "outputs": [
        {
          "internalType": "uint256",
          "name": "",
          "type": "uint256"
        }
      ],
      "stateMutability": "view",
      "type": "function"
    },
    {
      "inputs": [],
      "name": "getLastTimeStamp",
      "outputs": [
        {
          "internalType": "uint256",
          "name": "",
          "type": "uint256"
        }
      ],
      "stateMutability": "view",
      "type": "function"
    },
    {
      "inputs": [],
      "name": "getNumWords",
      "outputs": [
        {
          "internalType": "uint32",
          "name": "",
          "type": "uint32"
        }
      ],
      "stateMutability": "pure",
      "type": "function"
    },
    {
      "inputs": [],
      "name": "getNumberOfPlayers",
      "outputs": [
        {
          "internalType": "uint256",
          "name": "",
          "type": "uint256"
        }
      ],
      "stateMutability": "view",
      "type": "function"
    },
    {
      "inputs": [
        {
          "internalType": "uint256",
          "name": "index",
          "type": "uint256"
        }
      ],
      "name": "getPlayer",
      "outputs": [
        {
          "internalType": "address",
          "name": "",
          "type": "address"
        }
      ],
      "stateMutability": "view",
      "type": "function"
    },
    {
      "inputs": [],
      "name": "getRaffleState",
      "outputs": [
        {
          "internalType": "enum Raffle.RaffleState",
          "name": "",
          "type": "uint8"
        }
      ],
      "stateMutability": "view",
      "type": "function"
    },
    {
      "inputs": [],
      "name": "getRecentWinter",
      "outputs": [
        {
          "internalType": "address",
          "name": "",
          "type": "address"
        }
      ],
      "stateMutability": "view",
      "type": "function"
    },
    {
      "inputs": [],
      "name": "getRequestConfirmatison",
      "outputs": [
        {
          "internalType": "uint256",
          "name": "",
          "type": "uint256"
        }
      ],
      "stateMutability": "pure",
      "type": "function"
    },
    {
      "inputs": [],
      "name": "getSubscriptionId",
      "outputs": [
        {
          "internalType": "uint256",
          "name": "",
          "type": "uint256"
        }
      ],
      "stateMutability": "view",
      "type": "function"
    },
    {
      "inputs": [
        {
          "internalType": "bytes",
          "name": "",
          "type": "bytes"
        }
      ],
      "name": "performUpkeep",
      "outputs": [],
      "stateMutability": "nonpayable",
      "type": "function"
    },
    {
      "inputs": [
        {
          "internalType": "uint256",
          "name": "requestId",
          "type": "uint256"
        },
        {
          "internalType": "uint256[]",
          "name": "randomWords",
          "type": "uint256[]"
        }
      ],
      "name": "rawFulfillRandomWords",
      "outputs": [],
      "stateMutability": "nonpayable",
      "type": "function"
    }
  ],
  "bytecode": "0x6101406040523480156200001257600080fd5b50604051620018e6380380620018e68339818101604052810190620000389190620001b6565b858073ffffffffffffffffffffffffffffffffffffffff1660808173ffffffffffffffffffffffffffffffffffffffff1660601b81525050508460a0818152505085600260006101000a81548173ffffffffffffffffffffffffffffffffffffffff021916908373ffffffffffffffffffffffffffffffffffffffff1602179055508360c081815250508267ffffffffffffffff1660e08167ffffffffffffffff1660c01b815250508163ffffffff166101008163ffffffff1660e01b815250506000600460006101000a81548160ff02191690836002811115620001225762000121620002be565b5b02179055504260058190555080610120818152505050505050505062000374565b6000815190506200015481620002f2565b92915050565b6000815190506200016b816200030c565b92915050565b600081519050620001828162000326565b92915050565b600081519050620001998162000340565b92915050565b600081519050620001b0816200035a565b92915050565b60008060008060008060c08789031215620001d657620001d5620002ed565b5b6000620001e689828a0162000143565b9650506020620001f989828a0162000171565b95505060406200020c89828a016200015a565b94505060606200021f89828a016200019f565b93505060806200023289828a0162000188565b92505060a06200024589828a0162000171565b9150509295509295509295565b60006200025f8262000270565b9050919050565b6000819050919050565b600073ffffffffffffffffffffffffffffffffffffffff82169050919050565b6000819050919050565b600063ffffffff82169050919050565b600067ffffffffffffffff82169050919050565b7f4e487b7100000000000000000000000000000000000000000000000000000000600052602160045260246000fd5b600080fd5b620002fd8162000252565b81146200030957600080fd5b50565b620003178162000266565b81146200032357600080fd5b50565b620003318162000290565b81146200033d57600080fd5b50565b6200034b816200029a565b81146200035757600080fd5b50565b6200036581620002aa565b81146200037157600080fd5b50565b60805160601c60a05160c05160e05160c01c6101005160e01c610120516114fd620003e96000396000818161082f015261089d0152600061071b0152600081816106f801526108cf015260006106d7015260008181610340015261047401526000818161038a01526103de01526114fd6000f3fe6080604052600436106100dd5760003560e01c806353a2c19a1161007f578063c1c244e811610059578063c1c244e81461027e578063de3d9fb7146102a9578063e55ae4e8146102d4578063fd6673f514610311576100dd565b806353a2c19a146101ea5780636e04ff0d1461021557806391ad27b414610253576100dd565b80631fe543e3116100bb5780631fe543e3146101635780632a48a1441461018c5780632cfcc539146101b75780634585e33b146101c1576100dd565b806309bc33a7146100e2578063115cbaf51461010d57806312b5367314610138575b600080fd5b3480156100ee57600080fd5b506100f761033c565b60405161010491906110e8565b60405180910390f35b34801561011957600080fd5b50610122610364565b60405161012f91906110cd565b60405180910390f35b34801561014457600080fd5b5061014d61037b565b60405161015a91906110e8565b60405180910390f35b34801561016f57600080fd5b5061018a60048036038101906101859190610ec1565b610388565b005b34801561019857600080fd5b506101a1610448565b6040516101ae9190611006565b60405180910390f35b6101bf610472565b005b3480156101cd57600080fd5b506101e860048036038101906101e39190610dd1565b6105e1565b005b3480156101f657600080fd5b506101ff6107e3565b60405161020c919061113a565b60405180910390f35b34801561022157600080fd5b5061023c60048036038101906102379190610e1e565b6107ec565b60405161024a92919061104a565b60405180910390f35b34801561025f57600080fd5b50610268610899565b60405161027591906110e8565b60405180910390f35b34801561028a57600080fd5b506102936108c1565b6040516102a091906110e8565b60405180910390f35b3480156102b557600080fd5b506102be6108cb565b6040516102cb91906110e8565b60405180910390f35b3480156102e057600080fd5b506102fb60048036038101906102f69190610e67565b6108fd565b6040516103089190611006565b60405180910390f35b34801561031d57600080fd5b50610326610944565b60405161033391906110e8565b60405180910390f35b60007f0000000000000000000000000000000000000000000000000000000000000000905090565b6000600460009054906101000a900460ff16905090565b6000600361ffff16905090565b7f000000000000000000000000000000000000000000000000000000000000000073ffffffffffffffffffffffffffffffffffffffff163373ffffffffffffffffffffffffffffffffffffffff161461043a57337f00000000000000000000000000000000000000000000000000000000000000006040517f1cf993f4000000000000000000000000000000000000000000000000000000008152600401610431929190611021565b60405180910390fd5b6104448282610950565b5050565b6000600160009054906101000a900473ffffffffffffffffffffffffffffffffffffffff16905090565b7f00000000000000000000000000000000000000000000000000000000000000003410156104cc576040517f02b4eca700000000000000000000000000000000000000000000000000000000815260040160405180910390fd5b600060028111156104e0576104df6113dd565b5b600460009054906101000a900460ff166002811115610502576105016113dd565b5b14610539576040517fd6e19a8d00000000000000000000000000000000000000000000000000000000815260040160405180910390fd5b6000339080600181540180825580915050600190039060005260206000200160009091909190916101000a81548173ffffffffffffffffffffffffffffffffffffffff021916908373ffffffffffffffffffffffffffffffffffffffff1602179055503373ffffffffffffffffffffffffffffffffffffffff167f0805e1d667bddb8a95f0f09880cf94f403fb596ce79928d9f29b74203ba284d460405160405180910390a2565b60006105fb604051806020016040528060008152506107ec565b5090508061066a5747600080549050600460009054906101000a900460ff16600281111561062c5761062b6113dd565b5b6040517f584327aa00000000000000000000000000000000000000000000000000000000815260040161066193929190611103565b60405180910390fd5b6001600460006101000a81548160ff021916908360028111156106905761068f6113dd565b5b02179055506000600260009054906101000a900473ffffffffffffffffffffffffffffffffffffffff1673ffffffffffffffffffffffffffffffffffffffff16635d3b1d307f00000000000000000000000000000000000000000000000000000000000000007f000000000000000000000000000000000000000000000000000000000000000060037f000000000000000000000000000000000000000000000000000000000000000060016040518663ffffffff1660e01b815260040161075c95949392919061107a565b602060405180830381600087803b15801561077657600080fd5b505af115801561078a573d6000803e3d6000fd5b505050506040513d601f19601f820116820180604052508101906107ae9190610e94565b9050807fffa0c7626c3036061bbaafb595bc260929d35405feead367254dd7ca04ed75e960405160405180910390a250505050565b60006001905090565b600060606000600460009054906101000a900460ff166002811115610814576108136113dd565b5b60006002811115610828576108276113dd565b5b14905060007f00000000000000000000000000000000000000000000000000000000000000006005544261085c91906111fe565b1190506000806000805490501190506000804711905083801561087c5750825b80156108855750805b801561088e5750815b955050505050915091565b60007f0000000000000000000000000000000000000000000000000000000000000000905090565b6000600554905090565b60007f000000000000000000000000000000000000000000000000000000000000000067ffffffffffffffff16905090565b60008082815481106109125761091161140c565b5b9060005260206000200160009054906101000a900473ffffffffffffffffffffffffffffffffffffffff169050919050565b60008080549050905090565b600080805490508260008151811061096b5761096a61140c565b5b602002602001015161097d919061134e565b905060008082815481106109945761099361140c565b5b9060005260206000200160009054906101000a900473ffffffffffffffffffffffffffffffffffffffff16905080600160006101000a81548173ffffffffffffffffffffffffffffffffffffffff021916908373ffffffffffffffffffffffffffffffffffffffff1602179055506000600460006101000a81548160ff02191690836002811115610a2857610a276113dd565b5b0217905550600067ffffffffffffffff811115610a4857610a4761143b565b5b604051908082528060200260200182016040528015610a765781602001602082028036833780820191505090505b5060009080519060200190610a8c929190610b9c565b5060008173ffffffffffffffffffffffffffffffffffffffff1647604051610ab390610ff1565b60006040518083038185875af1925050503d8060008114610af0576040519150601f19603f3d011682016040523d82523d6000602084013e610af5565b606091505b5050905080610b30576040517fba31c4f300000000000000000000000000000000000000000000000000000000815260040160405180910390fd5b600160009054906101000a900473ffffffffffffffffffffffffffffffffffffffff1673ffffffffffffffffffffffffffffffffffffffff167f82335e265462fa57d652059024a95775025cab4c06b62b17f8c9dd289ce4b8fd60405160405180910390a25050505050565b828054828255906000526020600020908101928215610c15579160200282015b82811115610c145782518260006101000a81548173ffffffffffffffffffffffffffffffffffffffff021916908373ffffffffffffffffffffffffffffffffffffffff16021790555091602001919060010190610bbc565b5b509050610c229190610c26565b5090565b5b80821115610c3f576000816000905550600101610c27565b5090565b6000610c56610c518461117a565b611155565b90508083825260208201905082856020860282011115610c7957610c78611474565b5b60005b85811015610ca95781610c8f8882610da7565b845260208401935060208301925050600181019050610c7c565b5050509392505050565b6000610cc6610cc1846111a6565b611155565b905082815260208101848484011115610ce257610ce1611479565b5b610ced8482856112db565b509392505050565b600082601f830112610d0a57610d0961146f565b5b8135610d1a848260208601610c43565b91505092915050565b60008083601f840112610d3957610d3861146f565b5b8235905067ffffffffffffffff811115610d5657610d5561146a565b5b602083019150836001820283011115610d7257610d71611474565b5b9250929050565b600082601f830112610d8e57610d8d61146f565b5b8135610d9e848260208601610cb3565b91505092915050565b600081359050610db6816114b0565b92915050565b600081519050610dcb816114b0565b92915050565b60008060208385031215610de857610de7611483565b5b600083013567ffffffffffffffff811115610e0657610e0561147e565b5b610e1285828601610d23565b92509250509250929050565b600060208284031215610e3457610e33611483565b5b600082013567ffffffffffffffff811115610e5257610e5161147e565b5b610e5e84828501610d79565b91505092915050565b600060208284031215610e7d57610e7c611483565b5b6000610e8b84828501610da7565b91505092915050565b600060208284031215610eaa57610ea9611483565b5b6000610eb884828501610dbc565b91505092915050565b60008060408385031215610ed857610ed7611483565b5b6000610ee685828601610da7565b925050602083013567ffffffffffffffff811115610f0757610f0661147e565b5b610f1385828601610cf5565b9150509250929050565b610f2681611232565b82525050565b610f3581611244565b82525050565b610f4481611250565b82525050565b6000610f55826111d7565b610f5f81856111e2565b9350610f6f8185602086016112ea565b610f7881611488565b840191505092915050565b610f8c816112c9565b82525050565b6000610f9f6000836111f3565b9150610faa82611499565b600082019050919050565b610fbe8161126d565b82525050565b610fcd8161129b565b82525050565b610fdc816112a5565b82525050565b610feb816112b5565b82525050565b6000610ffc82610f92565b9150819050919050565b600060208201905061101b6000830184610f1d565b92915050565b60006040820190506110366000830185610f1d565b6110436020830184610f1d565b9392505050565b600060408201905061105f6000830185610f2c565b81810360208301526110718184610f4a565b90509392505050565b600060a08201905061108f6000830188610f3b565b61109c6020830187610fe2565b6110a96040830186610fb5565b6110b66060830185610fd3565b6110c36080830184610fd3565b9695505050505050565b60006020820190506110e26000830184610f83565b92915050565b60006020820190506110fd6000830184610fc4565b92915050565b60006060820190506111186000830186610fc4565b6111256020830185610fc4565b6111326040830184610fc4565b949350505050565b600060208201905061114f6000830184610fd3565b92915050565b600061115f611170565b905061116b828261131d565b919050565b6000604051905090565b600067ffffffffffffffff8211156111955761119461143b565b5b602082029050602081019050919050565b600067ffffffffffffffff8211156111c1576111c061143b565b5b6111ca82611488565b9050602081019050919050565b600081519050919050565b600082825260208201905092915050565b600081905092915050565b60006112098261129b565b91506112148361129b565b9250828210156112275761122661137f565b5b828203905092915050565b600061123d8261127b565b9050919050565b60008115159050919050565b6000819050919050565b60008190506112688261149c565b919050565b600061ffff82169050919050565b600073ffffffffffffffffffffffffffffffffffffffff82169050919050565b6000819050919050565b600063ffffffff82169050919050565b600067ffffffffffffffff82169050919050565b60006112d48261125a565b9050919050565b82818337600083830152505050565b60005b838110156113085780820151818401526020810190506112ed565b83811115611317576000848401525b50505050565b61132682611488565b810181811067ffffffffffffffff821117156113455761134461143b565b5b80604052505050565b60006113598261129b565b91506113648361129b565b925082611374576113736113ae565b5b828206905092915050565b7f4e487b7100000000000000000000000000000000000000000000000000000000600052601160045260246000fd5b7f4e487b7100000000000000000000000000000000000000000000000000000000600052601260045260246000fd5b7f4e487b7100000000000000000000000000000000000000000000000000000000600052602160045260246000fd5b7f4e487b7100000000000000000000000000000000000000000000000000000000600052603260045260246000fd5b7f4e487b7100000000000000000000000000000000000000000000000000000000600052604160045260246000fd5b600080fd5b600080fd5b600080fd5b600080fd5b600080fd5b600080fd5b6000601f19601f8301169050919050565b50565b600381106114ad576114ac6113dd565b5b50565b6114b98161129b565b81146114c457600080fd5b5056fea26469706673582212202b2bdb7ff0335a5af7b5068a54faefa025d3f1545c62e8aefc2d110ad72f6cf264736f6c63430008070033",
  "linkReferences": {},
  "deployedLinkReferences": {}
}